{
  "_format": "hh-sol-artifact-1",
  "contractName": "DutchAuction",
  "sourceName": "contracts/DutchAuction.sol",
  "abi": [
    {
      "inputs": [
        {
          "internalType": "address",
          "name": "_token",
          "type": "address"
        },
        {
          "internalType": "uint256",
          "name": "_startingPrice",
          "type": "uint256"
        },
        {
          "internalType": "uint256",
          "name": "_reservedPrice",
          "type": "uint256"
        },
        {
          "internalType": "uint256",
          "name": "_discountRate",
          "type": "uint256"
        }
      ],
      "stateMutability": "nonpayable",
      "type": "constructor"
    },
    {
      "anonymous": false,
      "inputs": [
        {
          "indexed": false,
          "internalType": "uint256",
          "name": "endTime",
          "type": "uint256"
        }
      ],
      "name": "AuctionEnd",
      "type": "event"
    },
    {
      "anonymous": false,
      "inputs": [
        {
          "indexed": true,
          "internalType": "address",
          "name": "bidder",
          "type": "address"
        },
        {
          "indexed": false,
          "internalType": "uint256",
          "name": "quntity",
          "type": "uint256"
        },
        {
          "indexed": false,
          "internalType": "uint256",
          "name": "amount",
          "type": "uint256"
        }
      ],
      "name": "BidSubmission",
      "type": "event"
    },
    {
      "anonymous": false,
      "inputs": [
        {
          "indexed": true,
          "internalType": "address",
          "name": "bidder",
          "type": "address"
        },
        {
          "indexed": false,
          "internalType": "uint256",
          "name": "refund",
          "type": "uint256"
        }
      ],
      "name": "RefundEther",
      "type": "event"
    },
    {
      "inputs": [
        {
          "internalType": "uint256",
          "name": "_quantity",
          "type": "uint256"
        }
      ],
      "name": "bid",
      "outputs": [
        {
          "internalType": "uint256",
          "name": "quantity",
          "type": "uint256"
        }
      ],
      "stateMutability": "payable",
      "type": "function"
    },
    {
      "inputs": [
        {
          "internalType": "address",
          "name": "",
          "type": "address"
        }
      ],
      "name": "bids",
      "outputs": [
        {
          "internalType": "uint256",
          "name": "",
          "type": "uint256"
        }
      ],
      "stateMutability": "view",
      "type": "function"
    },
    {
      "inputs": [],
      "name": "calcTokenPrice",
      "outputs": [
        {
          "internalType": "uint256",
          "name": "",
          "type": "uint256"
        }
      ],
      "stateMutability": "view",
      "type": "function"
    },
    {
      "inputs": [],
      "name": "claimTokens",
      "outputs": [],
      "stateMutability": "nonpayable",
      "type": "function"
    },
    {
      "inputs": [],
      "name": "discountRate",
      "outputs": [
        {
          "internalType": "uint256",
          "name": "",
          "type": "uint256"
        }
      ],
      "stateMutability": "view",
      "type": "function"
    },
    {
      "inputs": [],
      "name": "endTime",
      "outputs": [
        {
          "internalType": "uint256",
          "name": "",
          "type": "uint256"
        }
      ],
      "stateMutability": "view",
      "type": "function"
    },
    {
      "inputs": [],
      "name": "finalPrice",
      "outputs": [
        {
          "internalType": "uint256",
          "name": "",
          "type": "uint256"
        }
      ],
      "stateMutability": "view",
      "type": "function"
    },
    {
      "inputs": [
        {
          "internalType": "address",
          "name": "",
          "type": "address"
        }
      ],
      "name": "orders",
      "outputs": [
        {
          "internalType": "uint256",
          "name": "",
          "type": "uint256"
        }
      ],
      "stateMutability": "view",
      "type": "function"
    },
    {
      "inputs": [],
      "name": "owner",
      "outputs": [
        {
          "internalType": "address payable",
          "name": "",
          "type": "address"
        }
      ],
      "stateMutability": "view",
      "type": "function"
    },
    {
      "inputs": [],
      "name": "reservedPrice",
      "outputs": [
        {
          "internalType": "uint256",
          "name": "",
          "type": "uint256"
        }
      ],
      "stateMutability": "view",
      "type": "function"
    },
    {
      "inputs": [],
      "name": "stage",
      "outputs": [
        {
          "internalType": "enum DutchAuction.Stages",
          "name": "",
          "type": "uint8"
        }
      ],
      "stateMutability": "view",
      "type": "function"
    },
    {
      "inputs": [],
      "name": "startAuction",
      "outputs": [],
      "stateMutability": "nonpayable",
      "type": "function"
    },
    {
      "inputs": [],
      "name": "startTime",
      "outputs": [
        {
          "internalType": "uint256",
          "name": "",
          "type": "uint256"
        }
      ],
      "stateMutability": "view",
      "type": "function"
    },
    {
      "inputs": [],
      "name": "startingPrice",
      "outputs": [
        {
          "internalType": "uint256",
          "name": "",
          "type": "uint256"
        }
      ],
      "stateMutability": "view",
      "type": "function"
    },
    {
      "inputs": [],
      "name": "token",
      "outputs": [
        {
          "internalType": "contract ERC20Burnable",
          "name": "",
          "type": "address"
        }
      ],
      "stateMutability": "view",
      "type": "function"
    },
    {
      "inputs": [],
      "name": "totalSold",
      "outputs": [
        {
          "internalType": "uint256",
          "name": "",
          "type": "uint256"
        }
      ],
      "stateMutability": "view",
      "type": "function"
    },
    {
      "inputs": [],
      "name": "totalTokens",
      "outputs": [
        {
          "internalType": "uint256",
          "name": "",
          "type": "uint256"
        }
      ],
      "stateMutability": "view",
      "type": "function"
    }
  ],
  "bytecode": "0x6101006040523480156200001257600080fd5b5060405162001e0e38038062001e0e8339818101604052810190620000389190620002d8565b600073ffffffffffffffffffffffffffffffffffffffff168473ffffffffffffffffffffffffffffffffffffffff1603620000aa576040517f08c379a0000000000000000000000000000000000000000000000000000000008152600401620000a190620003ab565b60405180910390fd5b336000806101000a81548173ffffffffffffffffffffffffffffffffffffffff021916908373ffffffffffffffffffffffffffffffffffffffff16021790555083600760006101000a81548173ffffffffffffffffffffffffffffffffffffffff021916908373ffffffffffffffffffffffffffffffffffffffff1602179055506000600760146101000a81548160ff02191690836002811115620001545762000153620003cd565b5b021790555081608081815250508260e081815250508060c08181525050426003819055506104b0426200018891906200042b565b600481905550600760009054906101000a900473ffffffffffffffffffffffffffffffffffffffff1673ffffffffffffffffffffffffffffffffffffffff166318160ddd6040518163ffffffff1660e01b8152600401602060405180830381865afa158015620001fc573d6000803e3d6000fd5b505050506040513d601f19601f8201168201806040525081019062000222919062000466565b60a081815250505050505062000498565b600080fd5b600073ffffffffffffffffffffffffffffffffffffffff82169050919050565b6000620002658262000238565b9050919050565b620002778162000258565b81146200028357600080fd5b50565b60008151905062000297816200026c565b92915050565b6000819050919050565b620002b2816200029d565b8114620002be57600080fd5b50565b600081519050620002d281620002a7565b92915050565b60008060008060808587031215620002f557620002f462000233565b5b6000620003058782880162000286565b94505060206200031887828801620002c1565b93505060406200032b87828801620002c1565b92505060606200033e87828801620002c1565b91505092959194509250565b600082825260208201905092915050565b7f496e76616c696420616464726573730000000000000000000000000000000000600082015250565b600062000393600f836200034a565b9150620003a0826200035b565b602082019050919050565b60006020820190508181036000830152620003c68162000384565b9050919050565b7f4e487b7100000000000000000000000000000000000000000000000000000000600052602160045260246000fd5b7f4e487b7100000000000000000000000000000000000000000000000000000000600052601160045260246000fd5b600062000438826200029d565b915062000445836200029d565b925082820190508082111562000460576200045f620003fc565b5b92915050565b6000602082840312156200047f576200047e62000233565b5b60006200048f84828501620002c1565b91505092915050565b60805160a05160c05160e0516118f6620005186000396000818161044c0152610f5a0152600081816104210152610f7e0152600081816106160152818161064b0152818161086101528181610da701528181610ef301528181610fe001526110940152600081816103e10152818161047a01526104a101526118f66000f3fe6080604052600436106100fe5760003560e01c80637e1c0c0911610095578063c040e6b811610064578063c040e6b8146102f6578063d6fbf20214610321578063e6c0e6d51461034c578063f40e847114610377578063fc0c546a146103b4576100fe565b80637e1c0c091461024a5780638da5cb5b146102755780639106d7ba146102a0578063a6b513ee146102cb576100fe565b806348c54b9d116100d157806348c54b9d146101b457806362ea82db146101cb5780636b64c7691461020857806378e979251461021f576100fe565b80631b55d216146101035780633197cbb61461012e57806339f64b5214610159578063454a2ab314610184575b600080fd5b34801561010f57600080fd5b506101186103df565b60405161012591906111d5565b60405180910390f35b34801561013a57600080fd5b50610143610403565b60405161015091906111d5565b60405180910390f35b34801561016557600080fd5b5061016e610409565b60405161017b91906111d5565b60405180910390f35b61019e60048036038101906101999190611221565b6104cb565b6040516101ab91906111d5565b60405180910390f35b3480156101c057600080fd5b506101c9610905565b005b3480156101d757600080fd5b506101f260048036038101906101ed91906112ac565b610c88565b6040516101ff91906111d5565b60405180910390f35b34801561021457600080fd5b5061021d610ca0565b005b34801561022b57600080fd5b50610234610eeb565b60405161024191906111d5565b60405180910390f35b34801561025657600080fd5b5061025f610ef1565b60405161026c91906111d5565b60405180910390f35b34801561028157600080fd5b5061028a610f15565b60405161029791906112fa565b60405180910390f35b3480156102ac57600080fd5b506102b5610f39565b6040516102c291906111d5565b60405180910390f35b3480156102d757600080fd5b506102e0610f3f565b6040516102ed91906111d5565b60405180910390f35b34801561030257600080fd5b5061030b610f45565b604051610318919061138c565b60405180910390f35b34801561032d57600080fd5b50610336610f58565b60405161034391906111d5565b60405180910390f35b34801561035857600080fd5b50610361610f7c565b60405161036e91906111d5565b60405180910390f35b34801561038357600080fd5b5061039e600480360381019061039991906112ac565b610fa0565b6040516103ab91906111d5565b60405180910390f35b3480156103c057600080fd5b506103c9610fb8565b6040516103d69190611406565b60405180910390f35b7f000000000000000000000000000000000000000000000000000000000000000081565b60045481565b6000806003544261041a9190611450565b90506000817f000000000000000000000000000000000000000000000000000000000000000061044a9190611484565b7f00000000000000000000000000000000000000000000000000000000000000006104759190611450565b9050807f000000000000000000000000000000000000000000000000000000000000000011156104c3577f000000000000000000000000000000000000000000000000000000000000000090505b809250505090565b6000600160028111156104e1576104e0611315565b5b600760149054906101000a900460ff16600281111561050357610502611315565b5b148015610511575060045442115b1561051f5761051e610fde565b5b600180600281111561053457610533611315565b5b600760149054906101000a900460ff16600281111561055657610555611315565b5b14610596576040517f08c379a000000000000000000000000000000000000000000000000000000000815260040161058d90611523565b60405180910390fd5b600060149054906101000a900460ff16156105b057600080fd5b6001600060146101000a81548160ff0219169083151502179055506000831161060e576040517f08c379a00000000000000000000000000000000000000000000000000000000081526004016106059061158f565b60405180910390fd5b8291506002547f000000000000000000000000000000000000000000000000000000000000000061063f9190611450565b821115610677576002547f00000000000000000000000000000000000000000000000000000000000000006106749190611450565b91505b60008211610688576106876115af565b5b6000339050600034905060008461069d610409565b6106a79190611484565b9050803410156106ec576040517f08c379a00000000000000000000000000000000000000000000000000000000081526004016106e39061162a565b60405180910390fd5b80600560008573ffffffffffffffffffffffffffffffffffffffff1673ffffffffffffffffffffffffffffffffffffffff168152602001908152602001600020600082825461073b919061164a565b9250508190555084600660008573ffffffffffffffffffffffffffffffffffffffff1673ffffffffffffffffffffffffffffffffffffffff1681526020019081526020016000206000828254610791919061164a565b9250508190555084600260008282546107aa919061164a565b9250508190555060008183111561085f5781836107c79190611450565b90508373ffffffffffffffffffffffffffffffffffffffff166108fc829081150290604051600060405180830381858888f1935050505015801561080f573d6000803e3d6000fd5b508373ffffffffffffffffffffffffffffffffffffffff167f15cb16753684c0e54f072553783e689dc7a0ae18384a5e7ff0b2caf15b09e2958260405161085691906111d5565b60405180910390a25b7f00000000000000000000000000000000000000000000000000000000000000006002541061089157610890610fde565b5b8373ffffffffffffffffffffffffffffffffffffffff167fc9c6176cbf7c0a8c29655fe8ccbe5e28382ca11459d145223308723bfc69754587846040516108d992919061167e565b60405180910390a25050505060008060146101000a81548160ff02191690831515021790555050919050565b6001600281111561091957610918611315565b5b600760149054906101000a900460ff16600281111561093b5761093a611315565b5b148015610949575060045442115b1561095757610956610fde565b5b600280600281111561096c5761096b611315565b5b600760149054906101000a900460ff16600281111561098e5761098d611315565b5b146109ce576040517f08c379a00000000000000000000000000000000000000000000000000000000081526004016109c590611523565b60405180910390fd5b600060149054906101000a900460ff16156109e857600080fd5b6001600060146101000a81548160ff02191690831515021790555060003390506000600660008373ffffffffffffffffffffffffffffffffffffffff1673ffffffffffffffffffffffffffffffffffffffff168152602001908152602001600020549050600060015482610a5c9190611484565b600560008573ffffffffffffffffffffffffffffffffffffffff1673ffffffffffffffffffffffffffffffffffffffff16815260200190815260200160002054610aa69190611450565b90506000600660008573ffffffffffffffffffffffffffffffffffffffff1673ffffffffffffffffffffffffffffffffffffffff168152602001908152602001600020819055506000600560008573ffffffffffffffffffffffffffffffffffffffff1673ffffffffffffffffffffffffffffffffffffffff16815260200190815260200160002081905550600760009054906101000a900473ffffffffffffffffffffffffffffffffffffffff1673ffffffffffffffffffffffffffffffffffffffff1663a9059cbb84846040518363ffffffff1660e01b8152600401610b8f9291906116c8565b6020604051808303816000875af1158015610bae573d6000803e3d6000fd5b505050506040513d601f19601f82011682018060405250810190610bd29190611729565b508273ffffffffffffffffffffffffffffffffffffffff166108fc829081150290604051600060405180830381858888f19350505050158015610c19573d6000803e3d6000fd5b508273ffffffffffffffffffffffffffffffffffffffff167f15cb16753684c0e54f072553783e689dc7a0ae18384a5e7ff0b2caf15b09e29582604051610c6091906111d5565b60405180910390a250505060008060146101000a81548160ff02191690831515021790555050565b60056020528060005260406000206000915090505481565b60008054906101000a900473ffffffffffffffffffffffffffffffffffffffff1673ffffffffffffffffffffffffffffffffffffffff163373ffffffffffffffffffffffffffffffffffffffff1614610d2e576040517f08c379a0000000000000000000000000000000000000000000000000000000008152600401610d25906117a2565b60405180910390fd5b6000806002811115610d4357610d42611315565b5b600760149054906101000a900460ff166002811115610d6557610d64611315565b5b14610da5576040517f08c379a0000000000000000000000000000000000000000000000000000000008152600401610d9c90611523565b60405180910390fd5b7f0000000000000000000000000000000000000000000000000000000000000000600760009054906101000a900473ffffffffffffffffffffffffffffffffffffffff1673ffffffffffffffffffffffffffffffffffffffff166370a08231306040518263ffffffff1660e01b8152600401610e2191906117d1565b602060405180830381865afa158015610e3e573d6000803e3d6000fd5b505050506040513d601f19601f82011682018060405250810190610e629190611801565b14610ea2576040517f08c379a0000000000000000000000000000000000000000000000000000000008152600401610e99906118a0565b60405180910390fd5b6001600760146101000a81548160ff02191690836002811115610ec857610ec7611315565b5b0217905550426003819055506104b042610ee2919061164a565b60048190555050565b60035481565b7f000000000000000000000000000000000000000000000000000000000000000081565b60008054906101000a900473ffffffffffffffffffffffffffffffffffffffff1681565b60025481565b60015481565b600760149054906101000a900460ff1681565b7f000000000000000000000000000000000000000000000000000000000000000081565b7f000000000000000000000000000000000000000000000000000000000000000081565b60066020528060005260406000206000915090505481565b600760009054906101000a900473ffffffffffffffffffffffffffffffffffffffff1681565b7f00000000000000000000000000000000000000000000000000000000000000006002541115611011576110106115af565b5b6002600760146101000a81548160ff0219169083600281111561103757611036611315565b5b0217905550611044610409565b60018190555042600481905550600760009054906101000a900473ffffffffffffffffffffffffffffffffffffffff1673ffffffffffffffffffffffffffffffffffffffff166342966c686002547f00000000000000000000000000000000000000000000000000000000000000006110bd9190611450565b6040518263ffffffff1660e01b81526004016110d991906111d5565b600060405180830381600087803b1580156110f357600080fd5b505af1158015611107573d6000803e3d6000fd5b5050505060008054906101000a900473ffffffffffffffffffffffffffffffffffffffff1673ffffffffffffffffffffffffffffffffffffffff166108fc6002546001546111559190611484565b9081150290604051600060405180830381858888f19350505050158015611180573d6000803e3d6000fd5b507ff9eca2ce21be0ac7cc143c0389dde1e1398844727578b7118a2407873bdf44576004546040516111b291906111d5565b60405180910390a1565b6000819050919050565b6111cf816111bc565b82525050565b60006020820190506111ea60008301846111c6565b92915050565b600080fd5b6111fe816111bc565b811461120957600080fd5b50565b60008135905061121b816111f5565b92915050565b600060208284031215611237576112366111f0565b5b60006112458482850161120c565b91505092915050565b600073ffffffffffffffffffffffffffffffffffffffff82169050919050565b60006112798261124e565b9050919050565b6112898161126e565b811461129457600080fd5b50565b6000813590506112a681611280565b92915050565b6000602082840312156112c2576112c16111f0565b5b60006112d084828501611297565b91505092915050565b60006112e48261124e565b9050919050565b6112f4816112d9565b82525050565b600060208201905061130f60008301846112eb565b92915050565b7f4e487b7100000000000000000000000000000000000000000000000000000000600052602160045260246000fd5b6003811061135557611354611315565b5b50565b600081905061136682611344565b919050565b600061137682611358565b9050919050565b6113868161136b565b82525050565b60006020820190506113a1600083018461137d565b92915050565b6000819050919050565b60006113cc6113c76113c28461124e565b6113a7565b61124e565b9050919050565b60006113de826113b1565b9050919050565b60006113f0826113d3565b9050919050565b611400816113e5565b82525050565b600060208201905061141b60008301846113f7565b92915050565b7f4e487b7100000000000000000000000000000000000000000000000000000000600052601160045260246000fd5b600061145b826111bc565b9150611466836111bc565b925082820390508181111561147e5761147d611421565b5b92915050565b600061148f826111bc565b915061149a836111bc565b92508282026114a8816111bc565b915082820484148315176114bf576114be611421565b5b5092915050565b600082825260208201905092915050565b7f57726f6e67207374616765206f662044757463682041756374696f6e00000000600082015250565b600061150d601c836114c6565b9150611518826114d7565b602082019050919050565b6000602082019050818103600083015261153c81611500565b9050919050565b7f496e76616c696420626964000000000000000000000000000000000000000000600082015250565b6000611579600b836114c6565b915061158482611543565b602082019050919050565b600060208201905081810360008301526115a88161156c565b9050919050565b7f4e487b7100000000000000000000000000000000000000000000000000000000600052600160045260246000fd5b7f496e73756666696369656e742045544820666f72206269640000000000000000600082015250565b60006116146018836114c6565b915061161f826115de565b602082019050919050565b6000602082019050818103600083015261164381611607565b9050919050565b6000611655826111bc565b9150611660836111bc565b925082820190508082111561167857611677611421565b5b92915050565b600060408201905061169360008301856111c6565b6116a060208301846111c6565b9392505050565b60006116b2826113d3565b9050919050565b6116c2816116a7565b82525050565b60006040820190506116dd60008301856116b9565b6116ea60208301846111c6565b9392505050565b60008115159050919050565b611706816116f1565b811461171157600080fd5b50565b600081519050611723816116fd565b92915050565b60006020828403121561173f5761173e6111f0565b5b600061174d84828501611714565b91505092915050565b7f4e6f74206f776e6572206f6620636f6e74726163740000000000000000000000600082015250565b600061178c6015836114c6565b915061179782611756565b602082019050919050565b600060208201905081810360008301526117bb8161177f565b9050919050565b6117cb8161126e565b82525050565b60006020820190506117e660008301846117c2565b92915050565b6000815190506117fb816111f5565b92915050565b600060208284031215611817576118166111f0565b5b6000611825848285016117ec565b91505092915050565b7f41756374696f6e206973206e6f7420617070726f76656420746f2073656c6c2060008201527f746f6b656e20746f74616c20737570706c790000000000000000000000000000602082015250565b600061188a6032836114c6565b91506118958261182e565b604082019050919050565b600060208201905081810360008301526118b98161187d565b905091905056fea2646970667358221220d104849d5a20c49217014dd56cd89fa1835e314ef23e4a630d1c5279feadefe664736f6c63430008110033",
  "linkReferences": {},
  "deployedLinkReferences": {}
}