{
  "_format": "hh-sol-artifact-1",
  "contractName": "DutchAuction",
  "sourceName": "contracts/DutchAuction.sol",
  "abi": [
    {
      "inputs": [
        {
          "internalType": "address",
          "name": "_token",
          "type": "address"
        },
        {
          "internalType": "uint256",
          "name": "_startingPrice",
          "type": "uint256"
        },
        {
          "internalType": "uint256",
          "name": "_reservedPrice",
          "type": "uint256"
        },
        {
          "internalType": "uint256",
          "name": "_discountRate",
          "type": "uint256"
        }
      ],
      "stateMutability": "nonpayable",
      "type": "constructor"
    },
    {
      "anonymous": false,
      "inputs": [
        {
          "indexed": false,
          "internalType": "uint256",
          "name": "endTime",
          "type": "uint256"
        }
      ],
      "name": "AuctionEnd",
      "type": "event"
    },
    {
      "anonymous": false,
      "inputs": [
        {
          "indexed": true,
          "internalType": "address",
          "name": "bidder",
          "type": "address"
        },
        {
          "indexed": false,
          "internalType": "uint256",
          "name": "quntity",
          "type": "uint256"
        },
        {
          "indexed": false,
          "internalType": "uint256",
          "name": "amount",
          "type": "uint256"
        }
      ],
      "name": "BidSubmission",
      "type": "event"
    },
    {
      "anonymous": false,
      "inputs": [
        {
          "indexed": true,
          "internalType": "address",
          "name": "bidder",
          "type": "address"
        },
        {
          "indexed": false,
          "internalType": "uint256",
          "name": "refund",
          "type": "uint256"
        }
      ],
      "name": "RefundEther",
      "type": "event"
    },
    {
      "inputs": [
        {
          "internalType": "uint256",
          "name": "_quantity",
          "type": "uint256"
        }
      ],
      "name": "bid",
      "outputs": [
        {
          "internalType": "uint256",
          "name": "quantity",
          "type": "uint256"
        }
      ],
      "stateMutability": "payable",
      "type": "function"
    },
    {
      "inputs": [
        {
          "internalType": "address",
          "name": "",
          "type": "address"
        }
      ],
      "name": "bids",
      "outputs": [
        {
          "internalType": "uint256",
          "name": "",
          "type": "uint256"
        }
      ],
      "stateMutability": "view",
      "type": "function"
    },
    {
      "inputs": [],
      "name": "calcTokenPrice",
      "outputs": [
        {
          "internalType": "uint256",
          "name": "",
          "type": "uint256"
        }
      ],
      "stateMutability": "view",
      "type": "function"
    },
    {
      "inputs": [],
      "name": "claimTokens",
      "outputs": [],
      "stateMutability": "nonpayable",
      "type": "function"
    },
    {
      "inputs": [],
      "name": "endTime",
      "outputs": [
        {
          "internalType": "uint256",
          "name": "",
          "type": "uint256"
        }
      ],
      "stateMutability": "view",
      "type": "function"
    },
    {
      "inputs": [
        {
          "internalType": "address",
          "name": "",
          "type": "address"
        }
      ],
      "name": "orders",
      "outputs": [
        {
          "internalType": "uint256",
          "name": "",
          "type": "uint256"
        }
      ],
      "stateMutability": "view",
      "type": "function"
    },
    {
      "inputs": [],
      "name": "owner",
      "outputs": [
        {
          "internalType": "address",
          "name": "",
          "type": "address"
        }
      ],
      "stateMutability": "view",
      "type": "function"
    },
    {
      "inputs": [],
      "name": "stage",
      "outputs": [
        {
          "internalType": "enum DutchAuction.Stages",
          "name": "",
          "type": "uint8"
        }
      ],
      "stateMutability": "view",
      "type": "function"
    },
    {
      "inputs": [],
      "name": "startAuction",
      "outputs": [],
      "stateMutability": "nonpayable",
      "type": "function"
    },
    {
      "inputs": [],
      "name": "startTime",
      "outputs": [
        {
          "internalType": "uint256",
          "name": "",
          "type": "uint256"
        }
      ],
      "stateMutability": "view",
      "type": "function"
    },
    {
      "inputs": [],
      "name": "token",
      "outputs": [
        {
          "internalType": "contract ERC20Burnable",
          "name": "",
          "type": "address"
        }
      ],
      "stateMutability": "view",
      "type": "function"
    }
  ],
  "bytecode": "0x6101006040523480156200001257600080fd5b5060405162001e4238038062001e428339818101604052810190620000389190620002d8565b600073ffffffffffffffffffffffffffffffffffffffff168473ffffffffffffffffffffffffffffffffffffffff1603620000aa576040517f08c379a0000000000000000000000000000000000000000000000000000000008152600401620000a190620003ab565b60405180910390fd5b336000806101000a81548173ffffffffffffffffffffffffffffffffffffffff021916908373ffffffffffffffffffffffffffffffffffffffff16021790555083600760006101000a81548173ffffffffffffffffffffffffffffffffffffffff021916908373ffffffffffffffffffffffffffffffffffffffff1602179055506000600760146101000a81548160ff02191690836002811115620001545762000153620003cd565b5b021790555081608081815250508260e081815250508060c08181525050426003819055506104b0426200018891906200042b565b600481905550600760009054906101000a900473ffffffffffffffffffffffffffffffffffffffff1673ffffffffffffffffffffffffffffffffffffffff166318160ddd6040518163ffffffff1660e01b8152600401602060405180830381865afa158015620001fc573d6000803e3d6000fd5b505050506040513d601f19601f8201168201806040525081019062000222919062000466565b60a081815250505050505062000498565b600080fd5b600073ffffffffffffffffffffffffffffffffffffffff82169050919050565b6000620002658262000238565b9050919050565b620002778162000258565b81146200028357600080fd5b50565b60008151905062000297816200026c565b92915050565b6000819050919050565b620002b2816200029d565b8114620002be57600080fd5b50565b600081519050620002d281620002a7565b92915050565b60008060008060808587031215620002f557620002f462000233565b5b6000620003058782880162000286565b94505060206200031887828801620002c1565b93505060406200032b87828801620002c1565b92505060606200033e87828801620002c1565b91505092959194509250565b600082825260208201905092915050565b7f496e76616c696420616464726573730000000000000000000000000000000000600082015250565b600062000393600f836200034a565b9150620003a0826200035b565b602082019050919050565b60006020820190508181036000830152620003c68162000384565b9050919050565b7f4e487b7100000000000000000000000000000000000000000000000000000000600052602160045260246000fd5b7f4e487b7100000000000000000000000000000000000000000000000000000000600052601160045260246000fd5b600062000438826200029d565b915062000445836200029d565b925082820190508082111562000460576200045f620003fc565b5b92915050565b6000602082840312156200047f576200047e62000233565b5b60006200048f84828501620002c1565b91505092915050565b60805160a05160c05160e05161194d620004f560003960006102c40152600061029901526000818161044b01528181610480015281816106c401528181610c570152610edc0152600081816102f20152610319015261194d6000f3fe60806040526004361061009c5760003560e01c80636b64c769116100645780636b64c7691461017b57806378e97925146101925780638da5cb5b146101bd578063c040e6b8146101e8578063f40e847114610213578063fc0c546a146102505761009c565b80633197cbb6146100a157806339f64b52146100cc578063454a2ab3146100f757806348c54b9d1461012757806362ea82db1461013e575b600080fd5b3480156100ad57600080fd5b506100b661027b565b6040516100c391906111a2565b60405180910390f35b3480156100d857600080fd5b506100e1610281565b6040516100ee91906111a2565b60405180910390f35b610111600480360381019061010c91906111ee565b610343565b60405161011e91906111a2565b60405180910390f35b34801561013357600080fd5b5061013c610768565b005b34801561014a57600080fd5b5061016560048036038101906101609190611279565b610b38565b60405161017291906111a2565b60405180910390f35b34801561018757600080fd5b50610190610b50565b005b34801561019e57600080fd5b506101a7610dbd565b6040516101b491906111a2565b60405180910390f35b3480156101c957600080fd5b506101d2610dc3565b6040516101df91906112b5565b60405180910390f35b3480156101f457600080fd5b506101fd610de7565b60405161020a9190611347565b60405180910390f35b34801561021f57600080fd5b5061023a60048036038101906102359190611279565b610dfa565b60405161024791906111a2565b60405180910390f35b34801561025c57600080fd5b50610265610e12565b60405161027291906113c1565b60405180910390f35b60045481565b60008060035442610292919061140b565b90506000817f00000000000000000000000000000000000000000000000000000000000000006102c2919061143f565b7f00000000000000000000000000000000000000000000000000000000000000006102ed919061140b565b9050807f0000000000000000000000000000000000000000000000000000000000000000111561033b577f000000000000000000000000000000000000000000000000000000000000000090505b809250505090565b600060016002811115610359576103586112d0565b5b600760149054906101000a900460ff16600281111561037b5761037a6112d0565b5b148015610389575060045442115b1561039757610396610e38565b5b60018060028111156103ac576103ab6112d0565b5b600760149054906101000a900460ff1660028111156103ce576103cd6112d0565b5b1461040e576040517f08c379a0000000000000000000000000000000000000000000000000000000008152600401610405906114de565b60405180910390fd5b600060149054906101000a900460ff161561042857600080fd5b6001600060146101000a81548160ff0219169083151502179055508291506002547f0000000000000000000000000000000000000000000000000000000000000000610474919061140b565b8211156104ac576002547f00000000000000000000000000000000000000000000000000000000000000006104a9919061140b565b91505b600033905060003490506000846104c1610281565b6104cb919061143f565b905080341015610510576040517f08c379a00000000000000000000000000000000000000000000000000000000081526004016105079061154a565b60405180910390fd5b80600560008573ffffffffffffffffffffffffffffffffffffffff1673ffffffffffffffffffffffffffffffffffffffff168152602001908152602001600020600082825461055f919061156a565b9250508190555084600660008573ffffffffffffffffffffffffffffffffffffffff1673ffffffffffffffffffffffffffffffffffffffff16815260200190815260200160002060008282546105b5919061156a565b925050819055506105fb6040518060400160405280600681526020017f626964646572000000000000000000000000000000000000000000000000000081525084610f8f565b846002600082825461060d919061156a565b925050819055506000818311156106c257818361062a919061140b565b90508373ffffffffffffffffffffffffffffffffffffffff166108fc829081150290604051600060405180830381858888f19350505050158015610672573d6000803e3d6000fd5b508373ffffffffffffffffffffffffffffffffffffffff167f15cb16753684c0e54f072553783e689dc7a0ae18384a5e7ff0b2caf15b09e295826040516106b991906111a2565b60405180910390a25b7f0000000000000000000000000000000000000000000000000000000000000000600254106106f4576106f3610e38565b5b8373ffffffffffffffffffffffffffffffffffffffff167fc9c6176cbf7c0a8c29655fe8ccbe5e28382ca11459d145223308723bfc697545878460405161073c92919061159e565b60405180910390a25050505060008060146101000a81548160ff02191690831515021790555050919050565b600280600281111561077d5761077c6112d0565b5b600760149054906101000a900460ff16600281111561079f5761079e6112d0565b5b146107df576040517f08c379a00000000000000000000000000000000000000000000000000000000081526004016107d6906114de565b60405180910390fd5b600060149054906101000a900460ff16156107f957600080fd5b6001600060146101000a81548160ff0219169083151502179055506108526040518060400160405280600681526020017f68656c6c6f21000000000000000000000000000000000000000000000000000081525061102b565b60003390506000600660008373ffffffffffffffffffffffffffffffffffffffff1673ffffffffffffffffffffffffffffffffffffffff1681526020019081526020016000205490506000600154826108ab919061143f565b600560008573ffffffffffffffffffffffffffffffffffffffff1673ffffffffffffffffffffffffffffffffffffffff168152602001908152602001600020546108f5919061140b565b90506109366040518060400160405280600681526020017f726566756e640000000000000000000000000000000000000000000000000000815250826110c4565b6000600660008573ffffffffffffffffffffffffffffffffffffffff1673ffffffffffffffffffffffffffffffffffffffff168152602001908152602001600020819055506000600560008573ffffffffffffffffffffffffffffffffffffffff1673ffffffffffffffffffffffffffffffffffffffff16815260200190815260200160002081905550600760009054906101000a900473ffffffffffffffffffffffffffffffffffffffff1673ffffffffffffffffffffffffffffffffffffffff166323b872dd60008054906101000a900473ffffffffffffffffffffffffffffffffffffffff1685856040518463ffffffff1660e01b8152600401610a3f939291906115e8565b6020604051808303816000875af1158015610a5e573d6000803e3d6000fd5b505050506040513d601f19601f82011682018060405250810190610a829190611657565b508273ffffffffffffffffffffffffffffffffffffffff166108fc829081150290604051600060405180830381858888f19350505050158015610ac9573d6000803e3d6000fd5b508273ffffffffffffffffffffffffffffffffffffffff167f15cb16753684c0e54f072553783e689dc7a0ae18384a5e7ff0b2caf15b09e29582604051610b1091906111a2565b60405180910390a250505060008060146101000a81548160ff02191690831515021790555050565b60056020528060005260406000206000915090505481565b60008054906101000a900473ffffffffffffffffffffffffffffffffffffffff1673ffffffffffffffffffffffffffffffffffffffff163373ffffffffffffffffffffffffffffffffffffffff1614610bde576040517f08c379a0000000000000000000000000000000000000000000000000000000008152600401610bd5906116d0565b60405180910390fd5b6000806002811115610bf357610bf26112d0565b5b600760149054906101000a900460ff166002811115610c1557610c146112d0565b5b14610c55576040517f08c379a0000000000000000000000000000000000000000000000000000000008152600401610c4c906114de565b60405180910390fd5b7f0000000000000000000000000000000000000000000000000000000000000000600760009054906101000a900473ffffffffffffffffffffffffffffffffffffffff1673ffffffffffffffffffffffffffffffffffffffff1663dd62ed3e60008054906101000a900473ffffffffffffffffffffffffffffffffffffffff16306040518363ffffffff1660e01b8152600401610cf39291906116f0565b602060405180830381865afa158015610d10573d6000803e3d6000fd5b505050506040513d601f19601f82011682018060405250810190610d34919061172e565b14610d74576040517f08c379a0000000000000000000000000000000000000000000000000000000008152600401610d6b906117cd565b60405180910390fd5b6001600760146101000a81548160ff02191690836002811115610d9a57610d996112d0565b5b0217905550426003819055506104b042610db4919061156a565b60048190555050565b60035481565b60008054906101000a900473ffffffffffffffffffffffffffffffffffffffff1681565b600760149054906101000a900460ff1681565b60066020528060005260406000206000915090505481565b600760009054906101000a900473ffffffffffffffffffffffffffffffffffffffff1681565b6002600760146101000a81548160ff02191690836002811115610e5e57610e5d6112d0565b5b021790555042600481905550610e72610281565b600181905550600760009054906101000a900473ffffffffffffffffffffffffffffffffffffffff1673ffffffffffffffffffffffffffffffffffffffff166379cc679060008054906101000a900473ffffffffffffffffffffffffffffffffffffffff166002547f0000000000000000000000000000000000000000000000000000000000000000610f05919061140b565b6040518363ffffffff1660e01b8152600401610f229291906117ed565b600060405180830381600087803b158015610f3c57600080fd5b505af1158015610f50573d6000803e3d6000fd5b505050507ff9eca2ce21be0ac7cc143c0389dde1e1398844727578b7118a2407873bdf4457600454604051610f8591906111a2565b60405180910390a1565b6110278282604051602401610fa5929190611895565b6040516020818303038152906040527f319af333000000000000000000000000000000000000000000000000000000007bffffffffffffffffffffffffffffffffffffffffffffffffffffffff19166020820180517bffffffffffffffffffffffffffffffffffffffffffffffffffffffff8381831617835250505050611160565b5050565b6110c18160405160240161103f91906118c5565b6040516020818303038152906040527f41304fac000000000000000000000000000000000000000000000000000000007bffffffffffffffffffffffffffffffffffffffffffffffffffffffff19166020820180517bffffffffffffffffffffffffffffffffffffffffffffffffffffffff8381831617835250505050611160565b50565b61115c82826040516024016110da9291906118e7565b6040516020818303038152906040527fb60e72cc000000000000000000000000000000000000000000000000000000007bffffffffffffffffffffffffffffffffffffffffffffffffffffffff19166020820180517bffffffffffffffffffffffffffffffffffffffffffffffffffffffff8381831617835250505050611160565b5050565b60008151905060006a636f6e736f6c652e6c6f679050602083016000808483855afa5050505050565b6000819050919050565b61119c81611189565b82525050565b60006020820190506111b76000830184611193565b92915050565b600080fd5b6111cb81611189565b81146111d657600080fd5b50565b6000813590506111e8816111c2565b92915050565b600060208284031215611204576112036111bd565b5b6000611212848285016111d9565b91505092915050565b600073ffffffffffffffffffffffffffffffffffffffff82169050919050565b60006112468261121b565b9050919050565b6112568161123b565b811461126157600080fd5b50565b6000813590506112738161124d565b92915050565b60006020828403121561128f5761128e6111bd565b5b600061129d84828501611264565b91505092915050565b6112af8161123b565b82525050565b60006020820190506112ca60008301846112a6565b92915050565b7f4e487b7100000000000000000000000000000000000000000000000000000000600052602160045260246000fd5b600381106113105761130f6112d0565b5b50565b6000819050611321826112ff565b919050565b600061133182611313565b9050919050565b61134181611326565b82525050565b600060208201905061135c6000830184611338565b92915050565b6000819050919050565b600061138761138261137d8461121b565b611362565b61121b565b9050919050565b60006113998261136c565b9050919050565b60006113ab8261138e565b9050919050565b6113bb816113a0565b82525050565b60006020820190506113d660008301846113b2565b92915050565b7f4e487b7100000000000000000000000000000000000000000000000000000000600052601160045260246000fd5b600061141682611189565b915061142183611189565b9250828203905081811115611439576114386113dc565b5b92915050565b600061144a82611189565b915061145583611189565b925082820261146381611189565b9150828204841483151761147a576114796113dc565b5b5092915050565b600082825260208201905092915050565b7f57726f6e67207374616765206f662044757463682041756374696f6e00000000600082015250565b60006114c8601c83611481565b91506114d382611492565b602082019050919050565b600060208201905081810360008301526114f7816114bb565b9050919050565b7f496e73756666696369656e742045544820666f72206269640000000000000000600082015250565b6000611534601883611481565b915061153f826114fe565b602082019050919050565b6000602082019050818103600083015261156381611527565b9050919050565b600061157582611189565b915061158083611189565b9250828201905080821115611598576115976113dc565b5b92915050565b60006040820190506115b36000830185611193565b6115c06020830184611193565b9392505050565b60006115d28261138e565b9050919050565b6115e2816115c7565b82525050565b60006060820190506115fd60008301866112a6565b61160a60208301856115d9565b6116176040830184611193565b949350505050565b60008115159050919050565b6116348161161f565b811461163f57600080fd5b50565b6000815190506116518161162b565b92915050565b60006020828403121561166d5761166c6111bd565b5b600061167b84828501611642565b91505092915050565b7f4e6f74206f776e6572206f6620636f6e74726163740000000000000000000000600082015250565b60006116ba601583611481565b91506116c582611684565b602082019050919050565b600060208201905081810360008301526116e9816116ad565b9050919050565b600060408201905061170560008301856112a6565b61171260208301846112a6565b9392505050565b600081519050611728816111c2565b92915050565b600060208284031215611744576117436111bd565b5b600061175284828501611719565b91505092915050565b7f41756374696f6e206973206e6f7420617070726f76656420746f2073656c6c2060008201527f7370656369666963656420616d6f756e74206f6620746f6b656e730000000000602082015250565b60006117b7603b83611481565b91506117c28261175b565b604082019050919050565b600060208201905081810360008301526117e6816117aa565b9050919050565b600060408201905061180260008301856112a6565b61180f6020830184611193565b9392505050565b600081519050919050565b60005b8381101561183f578082015181840152602081019050611824565b60008484015250505050565b6000601f19601f8301169050919050565b600061186782611816565b6118718185611481565b9350611881818560208601611821565b61188a8161184b565b840191505092915050565b600060408201905081810360008301526118af818561185c565b90506118be60208301846112a6565b9392505050565b600060208201905081810360008301526118df818461185c565b905092915050565b60006040820190508181036000830152611901818561185c565b90506119106020830184611193565b939250505056fea2646970667358221220b4a2bf75a639c78a50bd94b5f1ca4f8b03d8179ae7475b185db6b2dc25da8f2a64736f6c63430008110033",
  "linkReferences": {},
  "deployedLinkReferences": {}
}